:100000007BC0000095C0000093C0000091C00000BC
:100010008FC000008DC000008BC0000089C00000B0
:1000200087C0000085C0000083C00000C6C7000074
:100030007FC000007DC000007BC0000079C00000D0
:1000400077C0000075C0000073C0000071C00000E0
:100050006FC000006DC000006BC0000069C00000F0
:1000600067C0000065C0000063C0000061C0000000
:100070005FC0000012011001FFFFFF08EB03023018
:1000800000000102000109022000010100C0320944
:1000900004000002FFFFFF00070584024000FF0785
:1000A0000502024000FF0403090426035300770001
:1000B000610074006F006E00200045006C00650058
:1000C0006300740072006F006E00690063007300CB
:1000D000000024034E00650072006F004A005400C7
:1000E000410047002F0041005600520020007600DA
:1000F00031002E003000000011241FBECFEFD2E0EF
:10010000DEBFCDBF11E0A0E0B1E0E6EBF7E102C059
:1001100005900D92A030B107D9F711E0A0E0B1E051
:1001200001C01D92A431B107E1F721D50C94D90B80
:1001300067CF923009F19330B1F0913051F020E067
:1001400030E0E0E0F0E0DA011196FC93EE93C901B3
:10015000089522E130E0E4E7F0E0DA011196FC9343
:10016000EE93C9010895813089F08130A0F4E6EA68
:10017000F0E0249130E0E7CF20E230E0E6E8F0E084
:10018000DA011196FC93EE93C9010895EAEAF0E0D2
:10019000249130E0D8CF823091F6E2EDF0E0249166
:1001A00030E0D1CF80930501882321F484B1887F8A
:1001B00084B9089584B1876084B908958091050158
:1001C000089560930101709302018093030190935D
:1001D000040140930001089581E0209101013091D4
:1001E000020140910301509104012115310541059F
:1001F000510509F480E00895982F80FF27C02A9ABE
:10020000299A299891FF27C02A9A299A299892FF1A
:1002100027C02A9A299A299893FF27C02A9A299AAF
:10022000299894FF27C02A9A299A299895FF27C0D0
:100230002A9A299A299896FF27C02A9A299A2998B2
:1002400087FD27C02A98299A299808952A98299ADB
:10025000299891FDD9CF2A98299A299892FDD9CF2A
:100260002A98299A299893FDD9CF2A98299A2998CA
:1002700094FDD9CF2A98299A299895FDD9CF2A9803
:10028000299A299896FDD9CF2A98299A299887FFE3
:10029000D9CF2A9A299A29980895282F982F80FF34
:1002A00044C02A9A81E01B9B80E0299A299891FFFB
:1002B0003AC02A9A1B998260299A299892FF31C0E4
:1002C0002A9A1B998460299A299893FF28C02A9A10
:1002D0001B998860299A299894FF1FC02A9A1B9914
:1002E0008061299A299895FF16C02A9A1B998062E5
:1002F000299A299896FF0DC02A9A1B998064299AF9
:10030000299827FD14C02A981B998068299A299852
:1003100008952A98F2CF2A98E9CF2A98E0CF2A9810
:10032000D7CF2A98CECF2A98C5CF2A98BBCF2A9A62
:10033000EBCF4F925F926F927F928F929F92AF928C
:10034000BF92CF92DF92EF92FF920F931F93DF93B2
:10035000CF93CDB7DEB7C454D0400FB6F894DEBF0C
:100360000FBECDBFC0900001DD24C6018C7090701F
:100370008830910509F4DDC0C0FE8DC0009709F4F6
:100380005CC1DD24DA9484E08093E900809101016E
:1003900090910201A0910301B09104010097A10581
:1003A000B10509F45BC08E010F5F1F4F6D2C7724E0
:1003B000E1E06E2277249C01AD018130F2E09F07DD
:1003C000F0E0AF07F0E0BF0720F020E032E040E0CF
:1003D00050E0A901569547955695479556954795EE
:1003E000442EA9014770507061E04115510509F490
:1003F00060E0C42CC60E4901AA24BB2488159905C7
:10040000AA05BB0509F49DC1442049F07801400EBE
:100410008D2D43DFF70181937F014E16C9F7C80187
:100420006C2D70E040E050E072D680910101909117
:100430000201A0910301B091040188199909AA0948
:10044000BB098093010190930201A0930301B09333
:1004500004010097A105B10509F0ADCF8091E80036
:100460008E778093E800CC5BDF4F0FB6F894DEBF49
:100470000FBECDBFCF91DF911F910F91FF90EF90F5
:10048000DF90CF90BF90AF909F908F907F906F90B4
:100490005F904F900895009709F4D1C091E0892EA4
:1004A000912CAA24AA94609101017091020180917B
:1004B0000301909104019B01AC0121503040404068
:1004C0005040287FB62EB21A79018A0183E0169532
:1004D0000795F794E7948A95D1F7E114F1040105A3
:1004E000110561F08A2D88DE0894E108F108010900
:1004F0001109E114F10401051105A1F7811491041A
:1005000009F4E1C12A9ABB2059F090910001BA94F4
:10051000C1FE10C1BB2009F04FC1289A299A299821
:100520001092010110920201109203011092040135
:100530009ACFC0FE88C08091010190910201A091E4
:100540000301B09104010097A105B10509F48BCF17
:100550008E010F5F1F4F32E0B32E24E0A22E8130B8
:1005600022E0920720E0A20720E0B20720F080E01E
:1005700092E0A0E0B0E07C019695879596958795EE
:1005800096958795D82EB092E900C7018770907034
:1005900021E0009709F420E0C22ECD0CC8016C2D9B
:1005A00070E040E050E012D6270166247724809165
:1005B000010190910201A0910301B091040148163C
:1005C00059066A067B0609F4FDC0DD2051F078016A
:1005D000D00ED7018C9161DEF70181937F01DE1689
:1005E000C1F7A092E900C8016C2D70E040E050E036
:1005F0008ED58091010190910201A0910301B091EB
:10060000040184199509A609B70980930101909303
:100610000201A0930301B09304012091E8002E771A
:100620002093E8002091E8002B772093E8000097C2
:10063000A105B10509F093CF16CFDD24A4CE8824FF
:100640009924AA2430CF82E08093E90080900101B0
:1006500090900201A0900301B090040181149104D4
:10066000A104B10409F460C08E010F5F1F4FF1E0D7
:100670008F16F2E09F06F0E0AF06F0E0BF0628F02C
:10068000812CF2E09F2EA12CB12C7401C40196950F
:1006900087959695879596958795D82EC4018770EE
:1006A000907061E0009709F460E06D0DC80170E0A2
:1006B00040E050E08BD5C701A0E0B0E025968CAFBC
:1006C0009DAFAEAFBFAF2597809001019090020122
:1006D000A0900301B090040188159905AA05BB05F7
:1006E00009F4ADC0DD2041F07801D00ED7018D9125
:1006F0007D0182DDDE14D1F725968CAD9DADAEADCA
:10070000BFAD2597881A990AAA0ABB0A80920101EF
:1007100090920201A0920301B0920401811491040D
:10072000A104B10409F0A3CF8091E8008B778093F6
:10073000E80099CE299A2998BB2009F4F1CEC92E58
:10074000E6CEC9010197887F422E481A9695879573
:100750009695879596958795882309F4B6C0780174
:10076000582E500E8D2D99DDD7018D937D01FD0101
:100770005A16C1F76114710419F12A9A442009F438
:10078000A6C08091000190E082709070442D485086
:1007900030E021E002C0442069F04A94009719F04B
:1007A000442009F4289A1B99322B299A2998220F60
:1007B000441689F7308333CE299A2998C92EA7CEBB
:1007C0002A98DCCFC7010197887FE81A969587950C
:1007D0009695879596958795882309F47DC048015D
:1007E000D82ED00ED4018C9158DDF40181934F01A5
:1007F000D814C1F72081EE2009F462C08091000175
:1008000090E0827090705E2D585031E040E00DC055
:100810002A9A1B99432B299A2998330FE51609F434
:1008200050C0EE2009F44DC02695EA94009719F0C7
:10083000EE2009F4289A20FDEBCF2A98EACFC701D1
:100840000197887FE81A969587959695879596954E
:100850008795882309F43EC04801D82ED00ED401D4
:100860008D914D012D01C8DCD814C9F7F20120810A
:10087000EE20A1F18091000190E0827090703E2DF9
:10088000385008C02A9A299A2998E31681F0EE2058
:1008900071F02695EA94009719F0EE2009F4289A51
:1008A00020FDF0CF2A98299A2998E31681F78090A5
:1008B000010190900201A0900301B09004011CCFAF
:1008C00040E040838ECE2A981ECEF80153CF30E010
:1008D0003083A5CD2801CACFF8018CCF1092010139
:1008E0001092020110920301109204011DCF4423C3
:1008F000B9F041500AC0289A299A2998442381F0D6
:10090000969587957795679541509B01217030703A
:100910002115310581F72898299A2998442381F7D0
:10092000089506C0299A29986150704080409040EF
:100930006115710581059105A9F708959F92AF9200
:10094000BF92CF92DF92EF92FF920F931F93DF93AC
:10095000CF93CDB7DEB7C054D0400FB6F894DEBF0A
:100960000FBECDBF82E08093E9008091E80082FD58
:1009700013C0C05CDF4F0FB6F894DEBF0FBECDBF13
:10098000CF91DF911F910F91FF90EF90DF90CF906B
:10099000BF90AF909F9008955E010894A11CB11C78
:1009A000C50165E070E040E050E010D48091E800BF
:1009B0008B778093E8002981CA80DD24EE24FF2410
:1009C000FE2CED2CDC2CCC248B8190E0A0E0B0E060
:1009D000C82AD92AEA2AFB2AFE2CED2CDC2CCC24AE
:1009E0008C8190E0A0E0B0E0C82AD92AEA2AFB2A4C
:1009F000FE2CED2CDC2CCC243D81832F90E0A0E05C
:100A0000B0E0C82AD92AEA2AFB2A96E0F694E794AD
:100A1000D794C7949A95D1F78FE3982E932237995C
:100A2000FECF46982BB98FEF8AB94498379BFECFFB
:100A3000449A27FD4AC08E010F5B1F4FC114D10499
:100A4000E104F10409F1C50160E470E040E050E028
:100A5000BDD38091E8008B778093E800F50137994A
:100A6000FECF81918BB94598379BFECF459AE01711
:100A7000F107A9F70894C108D108E108F108C114E9
:100A8000D104E104F104F9F6C501692D70E040E0FC
:100A900050E09CD38091E8008B778093E800992008
:100AA00089F0F501CE0102969A94890D911D37992E
:100AB000FECF21912BB94598379BFECF459AE81779
:100AC000F907A9F71AB8469A54CF1AB8469A84E09B
:100AD0008093E9008E010F5B1F4FC114D104E10424
:100AE000F10409F1F5013799FECF4598379BFECF08
:100AF00089B18193459AE017F107A9F78091E80041
:100B000080FFFCCFC50160E470E040E050E0FFD220
:100B10008091E8008E778093E8000894C108D1089E
:100B2000E108F108DACF992091F0F501CE010296A3
:100B3000292D2150820F911D3799FECF4598379B63
:100B4000FECF29B12193459AE817F907A9F78091BB
:100B5000E80080FFFCCFC501692D70E040E050E067
:100B6000D6D28091E8008E778093E80002CF809102
:100B7000630081608093630084B7877F84BF88E1CE
:100B80000FB6F89480936000109260000FBE90E062
:100B900080E80FB6F89480936100909361000FBED7
:100BA00018B817B81AB880E0FDDA88B1806F88B934
:100BB00087B1806787B97894F1D1E7D50DDB8823B9
:100BC00059F4CFD0882351F4F9DA8823B1F7B6DE8F
:100BD000DCD502DB8823A9F3ACDBEFCFC5D0EDCFAA
:100BE000DF93CF93CDB7DEB765970FB6F894DEBF2E
:100BF0000FBECDBF80910D01813809F449C0823804
:100C000010F1823861F1833809F580910C0180344C
:100C1000E9F4609110017091110180E090E0209161
:100C2000E800277F2093E800CB01772766272091F3
:100C30000E0130910F0140E050E0622B732B842BAA
:100C4000952B6FDE76C0803809F439C065960FB6F3
:100C5000F894DEBF0FBECDBFCF91DF910895809194
:100C60000C01803499F740910E018091E800877F54
:100C70008093E800CE01019664E070E04D8B6ED366
:100C8000F9D069817A818B819C814D8930DEDECFFC
:100C900080910C018034D1F68091E800877F8093A9
:100CA000E800CE01019664E070E058D369817A8152
:100CB0008B819C8140910E0184DADCD0C7CF80917A
:100CC0000C01803449F1803C09F0C0CF8091E800EC
:100CD000877F8093E8008EE48D8385E48E838DE4A6
:100CE0008F8389E48887198686B18095881F882735
:100CF000881F8A8784E28B878C871D861E861F86C5
:100D0000188A198A1A8A1B8A1C8ACE01059660E104
:100D100070E0BBD2AFD09ACF30910E01209110017C
:100D20009091E800977F9093E80020FD04C021FD9A
:100D300006C0A0D08BCF832F817010D0FACF81E076
:100D400031FF80E02FDAF5CF0895089582E060E862
:100D500042E351D084E061E842E34DC08093060154
:100D600008958091060108950F931F93DF93CF9309
:100D700000D000D0CDB7DEB782E08093E90080914B
:100D8000E80082FD09C00F900F900F900F90CF9157
:100D9000DF911F910F9108958E010F5F1F4FC801C2
:100DA00064E070E040E050E011D28091E8008B7781
:100DB0008093E800F801CE0105962081322F31564C
:100DC0003A3110F42F7D20833196E817F907A9F7FF
:100DD00084E08093E9008091E80080FFFCCFC801A7
:100DE00064E070E040E050E092D18091E8008E77BE
:100DF0008093E800C8CF853098F58093E900982F5C
:100E0000242F762F50E021FF19C03091EB003E7F58
:100E10003093EB003091ED003D7F3093ED00309149
:100E2000EB0031603093EB007093EC002093ED0009
:100E30005093F0002091EE0027FF1AC09F5F95307D
:100E400079F09093E900891779F07091EC00209186
:100E5000ED005091F00021FDD8CF9F5F953089F7CC
:100E60008093E90081E00895242F762F50E0CBCFC6
:100E700080E0089580910C0187FD09C08091E80011
:100E800080FD0EC080910B018823C1F708958091E9
:100E9000E80082FD0BC080910B018823C1F7089503
:100EA0008091E8008E778093E80008958091E800B3
:100EB0008B778093E80008954091E4005091E5001D
:100EC00028EE33E08091EC0080FF1FC08091E800A5
:100ED00080FD29C080910B018823E9F08530E9F07D
:100EE0008091EB0085FD1BC08091E4009091E500AE
:100EF0004817590739F32115310599F02150304031
:100F0000AC018091EC0080FDE1CF8091E80082FF90
:100F1000E1CF80E0089582E0089583E0089581E0C4
:100F2000089584E0089580E0089541D043D08091F1
:100F3000D8008F778093D8008091D8008068809304
:100F4000D8008091D8008F7D8093D80084E089BD3F
:100F500086E089BD09B400FEFDCF10920B0110920E
:100F60000701109209011092080180E060E042E060
:100F700042DF8091E1008E7F8093E1008091E2006A
:100F800081608093E2008091E20088608093E200BB
:100F90008091E0008E7F8093E0000895E3E6F0E02A
:100FA00080818E7F808381E080930A01BECF109282
:100FB000E20008951092E10008951F920F920FB67B
:100FC0000F9211242F933F934F935F936F937F93CF
:100FD0008F939F93AF93BF93EF93FF938091E10023
:100FE00082FF04C08091E20082FD84C08091E10014
:100FF00080FF04C08091E20080FD68C08091E10024
:1010000084FF2CC08091E20084FF28C084E089BD69
:1010100086E089BD09B400FEFDCF8091D8008F7DA8
:101020008093D8008091E1008F7E8093E1008091D1
:10103000E2008F7E8093E2008091E20081608093E5
:10104000E20080910701882309F05BC08091E300F2
:1010500087FF5BC084E080930B0176DE8091E10026
:1010600083FF04C08091E20083FD11C0FF91EF91E6
:10107000BF91AF919F918F917F916F915F914F91B0
:101080003F912F910F900FBE0F901F901895809158
:10109000E100877F8093E10082E080930B01109252
:1010A00007018091E1008E7F8093E1008091E20052
:1010B0008E7F8093E2008091E20080618093E20065
:1010C00080E060E042E097DE5FD3D0CF8091E20025
:1010D0008E7F8093E2008091E20080618093E20045
:1010E0008091D80080628093D80019BC10920B01C7
:1010F0002CDE84CF8091E1008B7F8093E10044D38C
:1011000075CF84E080930B01A8CF81E0A4CF8F92AC
:101110009F92BF92CF92DF92EF92FF920F931F9315
:10112000DF93CF930F92CDB7DEB7082F4B016A0143
:101130009983C2DEB82E9981882381F5192FC114B5
:10114000D10439F0F60120813181821A930A020F0D
:10115000131F8114910411F1EE24FF240EC0F80135
:1011600081918F018093F10008948108910808947F
:10117000E11CF11C8114910489F08091E80085FD47
:10118000EECF8091E8008E778093E800FED2C11404
:10119000D10491F491DE882369F3B82E8B2D0F9042
:1011A000CF91DF911F910F91FF90EF90DF90CF9043
:1011B000BF909F908F900895F601808191818E0D50
:1011C0009F1D9183808325E0B22EE8CF8F929F925E
:1011D000BF92CF92DF92EF92FF920F931F93DF9314
:1011E000CF930F92CDB7DEB7082F4B016A019983D9
:1011F00063DEB82E9981882381F5192FC114D1049B
:1012000039F0F60120813181821A930A020F131FEF
:101210008114910411F1EE24FF240EC08091F1009D
:10122000F80181938F010894810891080894E11CCA
:10123000F11C8114910489F08091E80085FDEECFC6
:101240008091E8008B778093E8009FD2C114D1048D
:1012500091F432DE882369F3B82E8B2D0F90CF9155
:10126000DF911F910F91FF90EF90DF90CF90BF9093
:101270009F908F900895F601808191818E0D9F1D22
:101280009183808345E0B42EE8CF20911201309104
:1012900013012617370758F06115710509F054C07E
:1012A0002091E8002E772093E80020E030E060E015
:1012B00021153105D9F140910B01442309F446C0B1
:1012C000453009F445C04091E80043FD43C04091DA
:1012D000E80042FD2DC04091E80040FFE9CF409179
:1012E000F20050E021153105A1F04830510588F495
:1012F000E82FF92F03C04830510558F481918093AD
:10130000F100CF01215030404F5F5F4F2115310573
:1013100091F761E04830510509F060E04091E80044
:101320004E774093E8002115310529F6662319F61A
:101330008091E80082FD10C080910B01882331F07C
:101340008530B1F783E008959B01B1CF82E0089525
:1013500083E0089581E0089580E0089561157105A6
:1013600029F42091E8002B772093E800611571059E
:10137000E9F020910B01222329F1253029F1209158
:10138000E80023FD23C02091E80022FFF2CFE82FE0
:10139000F92FCF012091F200222319F38091F1005F
:1013A0008193CF0161507040A1F7DBCF8091E800BD
:1013B00080FD0EC080910B01882321F08530B1F7AC
:1013C00083E0089582E0089583E0089581E0089520
:1013D00080E00895E82FF92F809112019091130178
:1013E0008617970758F06115710509F04AC080917A
:1013F000E8008E778093E80080E090E040E000977E
:1014000091F120910B01222309F43DC0253009F40C
:101410003CC02091E80023FD3AC02091E80022FD65
:1014200024C02091E80020FFEACF2091F20030E0B4
:10143000009751F40CC044914093F100319601970C
:101440002F5F3F4F009719F028303105A0F341E09E
:101450002830310509F040E02091E8002E772093F4
:10146000E800009771F6442361F68091E80082FD60
:1014700010C080910B01882331F08530B1F783E0F3
:101480000895CB01BBCF82E0089583E0089581E009
:10149000089580E008950F931F93DF93CF93CDB706
:1014A000DEB7AC970FB6F894DEBF0FBECDBFECE051
:1014B000F1E08091F100819321E0E431F207C9F776
:1014C0008FDB8091E80083FF12C090910C01809126
:1014D0000D01853009F461C0863010F1883009F4BF
:1014E000E1C0893009F4C4C0863009F479C0809124
:1014F000E80083FF0AC08091EB0080628093EB00DC
:101500008091E800877F8093E800AC960FB6F8944E
:10151000DEBF0FBECDBFCF91DF911F910F91089518
:10152000813029F0813008F481C0833001F799239C
:1015300009F4CBC09230D9F680910E01882321F5B1
:10154000209110012F7099F22093E9008091EB0017
:1015500080FF1AC080910D01833009F40DC1809184
:10156000EB0080618093EB0081E090E002C0880F87
:10157000991F2A95E2F78093EA001092EA00809181
:10158000EB0088608093EB001092E9008091E80006
:10159000877F8093E8006EDCAACF992309F0A7CF5C
:1015A00010910E011F770FB7F8948091E800877FA4
:1015B0008093E8005FDC8091E80080FFFCCF8091A1
:1015C000E3008078812B8093E30080688093E300C0
:1015D000112309F08FC082E080930B010FBF87CFEA
:1015E0009058923008F083CF80910E0190910F01B6
:1015F00023E08C3D920709F47FC060911001AE0199
:101600004F5F5F4F0E949900BC01009709F46FCFB4
:101610008091E800877F8093E80089819A81DADEF3
:101620008091E8008B778093E80061CF903809F4CF
:1016300058C0923809F05BCF809110018F70809371
:10164000E9008091EB0091E085FF90E01092E900C5
:101650008091E800877F8093E8009093F1001092DA
:10166000F1008091E8008E778093E80003DC3FCFA3
:10167000992309F03CCF80910E01823008F037CFDA
:101680009091E800977F9093E80080930701F2DB48
:1016900080910701882309F467C084E080930B01DF
:1016A00055DB25CF903809F022CF8091E800877F65
:1016B0008093E800809107018093F1008091E80019
:1016C0008E778093E800D6DB12CF90910E01913097
:1016D00009F00DCF91E0833009F090E0909309017B
:1016E00053CF9091080180910901882309F4B0CF6C
:1016F0009260AECF83E070CF83E08C838AE28B83ED
:101700006FB7F894DE01159680E090E04EE051E26C
:1017100009C030E0295C3F4F2D933D930196843101
:10172000910589F0E42FF0E050935700249180FF59
:1017300003C022952F704F5F2F702A3050F730E092
:10174000205D3F4FE9CF6FBF8091E800877F809396
:10175000E800CE0103966AE270E097DD8091E80030
:101760008B778093E800C3CE8091E30087FF0AC0A7
:1017700084E080930B0194CF8091EB008062809392
:10178000EB0002CF81E0F5CF08951F9380910B010C
:10179000882359F01091E9001F701092E9008091A0
:1017A000E80083FD04C01093E9001F91089573DEE3
:0617B000FACFF894FFCF10
:00000001FF
